:020000000E2AC6
:10000800FF00030E83010317A3000A08A2008A0158
:100018000B1D14289F0A0319A00A0B1164308100D4
:0E00280022088A00230E8300FF0E7F0E0900BF
:06003600000000000800BC
:10003C000F3083120313FC004730FD00FD0B242806
:0A004C00FC0B24280000000008004F
:0E005600213083120313FD00FD0B2F2808003C
:1000640083120317AD1B38288611392886152D1BDA
:100074003D2806113E280615AD1A4228861043284D
:1000840086142D1A472806104828061483160313CD
:100094006F184F288312861651288312861206176A
:1000A4001B2006130317AD19592886115A288615E3
:1000B4002D195E2806115F280615AD1863288610D1
:1000C400642886142D1868280610692806148316D7
:1000D40003136F18702883128616722883128612EF
:1000E40006171B20061383166F1C7A281E207B28F4
:0400F4002B200800B5
:1000F800831603136F10831203172808AD003220EC
:0601080083166F140800CD
:10010E0083120313FB01FA01F9018030F800F10CA0
:10011E00F00C031C9B287408F90775080318750F5B
:10012E00FA070318FB0A0310F01FA3287408FA0736
:10013E0075080318750FFB07FB0CFA0CF90CF80C7D
:10014E00031C8E287B08F3007A08F2007908F10070
:06015E007808F000080023
:0E016400831203171E088A001D08820008007F
:10017200063083120313FD00FD0BBD2800000800AA
:1001820083120317A801AA01AB011030AC0004309E
:100192002B020318F628F030031388008030F00099
:1001A2007008083E840003172C09F00070088000D4
:1001B2001B201B200F3003130805F00070080317E3
:1001C200A90070080319F0282A08A80029080319B1
:1001D200EE28A90CA913A80AE7280430AB00AC0D3D
:1001E2002C100430AA07AB0AC8282808F00008001F
:1001F200831603131208013EF000F1010318F10AFD
:10020200831203172408F400F50187200630F20058
:100212007008F4007108F500720803191529F50C2D
:10022200F40CF513FF3E0E290430F1007408F000BF
:10023200710803192029F00D7010FF3E1A29303081
:100242007005F3007408F0007508F100F10CF00C71
:10025200F113F10CF00CF113700895000F309705B3
:0602620073089704080078
:0C0268008312031395011712971208006F
:10027400831603130711831212150C309704080018
:100284008630831603138100643083128100A0300A
:040294008B000800D3
:100298005E29803083120317A4007129C030A4009E
:1002A80071299430A4007129D430A40071298030B8
:1002B800A4007129831203172408013A03194D2950
:1002C8002408023A031952292408033A0319552924
:1002D8002408043A031958295B292503F000240847
:1002E800F0077008A4007008AD00322083166F1064
:1002F80083120317A701270826078400000803199B
:100308008F292708260784000008A8007C2083126C
:0E0318000317A70A7F29831603136F1408002A
:10032600B2208A110A128000840A9D0A03199E0AC5
:08033600F003031D93290800E8
:10033E00C1207008A4000F3003130805F000031944
:0E034E00AA29B920A22903172408F0000800EC
:10035C00803083120313F0007008083E8400FF30D5
:04036C008000080005
:100370008316031306130611061086100611861144
:1003800083120613861286110611861006101E208F
:100390001E201E208614061406171B2006131E207E
:1003A00006171B2006131E2006171B2006131E20EF
:1003B000061006171B2006131E2006171B20061307
:1003C0008610861506171B2006131E20861106149C
:1003D00006171B200613061006171B2006131E20E7
:1003E00006171B200613061406171B2006131E20D3
:1003F000061006171B20061386150615861406140C
:0E04000006171B2006131E2083166F1408001B
:0E040E00831603130715F030831297050800BC
:10041C009825831603138514051185118601870110
:10042C000130880083128701B821AE211214921476
:10043C007C308316920034210730FB001730FC000F
:10044C006A30FD00FD0B282AFC0B282AFB0B282AFE
:10045C0000000C300317AD00322001300317AD0043
:10046C00322001300317A4000630A5004330A6004B
:10047C004C21023083120317A4000330A500353041
:10048C00A6004C211530FB004B30FC00BE30FD00AB
:10049C00FD0B4E2AFC0B4E2AFB0B4E2A00003A2178
:1004AC00071478300317A400F9200630FB00133032
:1004BC00FC00AD30FD00FD0B612AFC0B612AFB0B2F
:1004CC00612A000000000722071001300317AD005D
:1004DC00322002300317A4000630A5002E30A600EF
:1004EC004C218312051507170B30FB002630FC003E
:1004FC005D30FD00FD0B802AFC0B802AFB0B802A53
:10050C00000000000511071301300317AD00322065
:10051C0001300317A4000230A5002030A6004C21A6
:10052C001530FB004B30FC00BE30FD00FD0B9C2A4F
:10053C00FC0B9C2AFB0B9C2A000001308312031736
:10054C00AD0032208316ED01EE01831203179501E5
:10055C0096019B019C0199019A01970198010F301A
:10056C00831603139F0083128518E12A0830FB00C1
:10057C001B30FC002730FD00FD0BC22AFC0BC22AED
:10058C00FB0BC22A02300317A4000530A50049302A
:10059C00A6004C211130FB003C30FC00CB30FD00A0
:1005AC00FD0BD62AFC0BD62AFB0BD62A0130831264
:1005BC000317AD003220851CE42AE62A851CE12AAB
:1005CC0001300317AD00322001300317A4000130B5
:1005DC00A500C530A6004C21023083120317A400DD
:1005EC000730A5006E30A6004C21831203179F0123
:1005FC00A00142218312053003172002031D082B92
:10060C00DC301F02031C132B03138518122B013033
:10061C000317AD003220A82AFB2A0317A1019F2142
:10062C007008A10070080319002B6E2B3330A10049
:10063C001B08F0001C08F1000330F4000030F5003A
:10064C00872070080317990771080318013E9A0751
:10065C009E2B3230A10002301507F000160803184B
:10066C00013EF10070089B0771080318013E9C07BE
:10067C009E2B3130A100950A0319960A9E2B363019
:10068C00A1009E2B3430A10004301902F000003080
:10069C00031C013E1A02F100700897077108031839
:1006AC00013E98079E2B3530A1009E2B3930A100BE
:1006BC009E2B3830A1009E2B3730A1009E2B23306F
:1006CC00A1009E2B3030A1009E2B2A30A1009E2B26
:1006DC002108013A03191C2B2108023A03192F2B6C
:1006EC002108033A03193F2B2108053A0319452B1E
:1006FC002108073A0319482B2108063A0319592BEC
:10070C002108093A03195C2B21080A3A03195F2BBB
:10071C0021080B3A0319622B21080D3A0319652B9A
:10072C0021080E3A0319682B21080F3A03196B2B79
:10073C002108A8007C20ED0A0319EE0A80306E0611
:10074C00F00080307002031DAD2B04306D02031CD1
:10075C00642C0030831203171806031DB72B0530C9
:10076C001706031DF72B0630FB001330FC00AD30D1
:10077C00FD00FD0BBF2BFC0BBF2BFB0BBF2B00009D
:10078C0000000130AD0032200C300317AD003220D8
:10079C0001300317A4000630A5001030A6004C2130
:1007AC008312851502300317A4000530A500E43030
:1007BC00A6004C213A218714C8300317A400F92055
:1007CC000430FB000C30FC003330FD00FD0BEC2B37
:1007DC00FC0BEC2BFB0BEC2B000000000722871012
:1007EC00652C0230FB000430FC00BA30FD00031312
:1007FC00FD0BFD2BFC0BFD2BFB0BFD2B0000051546
:10080C000230FB008630FC009930FD00FD0B0C2CF7
:10081C00FC0B0C2CFB0B0C2C05110230FB003830A4
:10082C00FC00AD30FD00FD0B192CFC0B192CFB0B47
:10083C00192C05150230FB008630FC009930FD00A8
:10084C00FD0B262CFC0B262CFB0B262C0511023049
:10085C00FB003830FC00AD30FD00FD0B332CFC0BE5
:10086C00332CFB0B332C051501300317AD00322054
:10087C0001300317A4000330A500D630A6004C218C
:10088C00023083120317A4000330A5006230A600C7
:10089C004C210B30FB002630FC005D30FD00FD0BC5
:1008AC00552CFC0B552CFB0B552C0000000001307B
:1008BC0083120317AD0032200511A82A002B1F301C
:1008CC00FB007130FC001E30FD008312FD0B6B2C05
:1008DC00FC0B6B2CFB0B6B2C0000EF010130031796
:1008EC00AD00322001300317A4000130A5005130B7
:1008FC00A6004C21023083120317A4000130A5007E
:10090C00A030A6004C219F2170080313EF00700843
:10091C000319892C6F080D3A031DF02C0530FB00D0
:10092C000F30FC00F130FD00FD0B9A2CFC0B9A2CC7
:10093C00FB0B9A2C01300317AD003220013003174A
:10094C00A4000330A500B930A6004C2183128511F8
:10095C000530FB000F30FC00F130FD00FD0BB42C1A
:10096C00FC0BB42CFB0BB42C3A210714C830031726
:10097C00A400F9200430FB000C30FC003330FD00E7
:10098C00FD0BC62CFC0BC62CFB0BC62C0000000070
:10099C000710072207170C30850002300317A4003C
:1009AC000130A500A930A6004C210E30FB003130DF
:1009BC00FC009430FD00FD0BE12CFC0BE12CFB0B3F
:1009CC00E12C000083128501071301300317AD00E1
:0809DC003220A82A742CF12C32
:100B3000203084004E3083120313F000F730031787
:100B40009D0004309E009321A03084002530831244
:100B50000313F0006D3003179D0005309E009321B4
:100B60006E308400013083120313F000033003174A
:100B70009D0000309E009321C530840028308312F0
:100B80000313F000453003179D0005309E009321AC
:100B9000103083178400053083120313F000923065
:0E0BA00003179D0005309E009321831308006B
:020006000034C4
:1009EE00533445344E3453344F345234203441341E
:0C09FE004334543449345634453400343A
:0E0A0A004C344F3443344B34453444340034C0
:100A18004F34623473346534723476346534203438
:0C0A28006D346F3474346F347234003459
:0C0A3400533454344134523454340034F0
:100A40004C344334443420344F3446344634003438
:100A500044346F346F34723420346F3470346534FE
:100A60006E342E3420344C346F3463346B343F3462
:020A7000003450
:100A720054347234793420346134673461346934E3
:080A82006E342E342E340034D2
:100A8A0050346C34653461347334653420344934F9
:100A9A006E3470347534743420346B34653479347C
:020AAA00003416
:100AAC0041346334633465347334733420346434C4
:0C0ABC0065346E346934653464340034F1
:100AC80055344E344C344F3443344B344534443429
:020AD8000034E8
:100ADA00503472346534733473343A3420342334E2
:020AEA000034D6
:100AEC0053344534433455345234493454345934E2
:100AFC00203441344334543449345634453400346E
:100B0C0044344F344F34523420344C344F34433407
:080B1C004B344534443400342D
:0A0B240044344F344F34523400348F
:02400E004A2F37
:00000001FF
