:020000002A2AAA
:10000800FF00030E83010317A8000A08A7008A014E
:100018000B1D14289B0A03199C0A0B1164308100DC
:0E00280027088A00280E8300FF0E7F0E0900B5
:06003600000000000800BC
:10003C000F3083120313FC004730FD00FD0B242806
:0A004C00FC0B24280000000008004F
:0E005600213083120313FD00FD0B2F2808003C
:1000640083120317B21B3828861139288615321BD0
:100074003D2806113E280615B21A42288610432848
:100084008614321A472806104828061420184C28CB
:1000940086164D28861206171B200613B2195428FB
:1000A4008611552886153219592806115A2806151D
:1000B400B2185E2886105F2886143218632806104A
:1000C40064280614201868288616692886120617DC
:1000D4001B200613201C70281E2071282B200800CA
:1000E40083120313FB01FA01F9018030F800F10CCB
:1000F400F00C031C86287408F90775080318750F9B
:10010400FA070318FB0A0310F01F8E287408FA0775
:1001140075080318750FFB07FB0CFA0CF90CF80CA7
:10012400031C79287B08F3007A08F2007908F100AF
:060134007808F00008004D
:0E013A00831203171E088A001D0882000800A9
:100148008312031720102D08B20032200317201441
:0201580008009D
:10015A0083120317AD01AF01B0011030B1000430B2
:10016A0030020318E228F030031388008030F000D0
:10017A007008083E840003173109F00070088000F7
:10018A001B201B200F3003130805F000700803170B
:10019A00AE0070080319DC282F08AD002E080319D9
:1001AA00DA28AE0CAE13AD0AD3280430B000B10D74
:1001BA0031100430AF07B00AB4282D08F000080047
:1001CA00063083120313FD00FD0BE9280000080026
:1001DA00831603130711831212150C3097040800B3
:1001EA009D208A110A128000840A9D0A03199E0A18
:0801FA00F003031DF5280800C5
:10020200AD207008A9000F3003130805F000031990
:0E0212000C29E520042903172908F000080034
:10022000831203172B08F1002C08F2000130AB02F7
:10023000031CAC0300307206031D20290030710638
:1002400003193B29290884000008F1002A088400CA
:100250007108000603193829290884000008F000F5
:100260002A0884000008F002F101031CF1033D2973
:0C027000A90AAA0A1029F001F1010800F7
:10027C00831603131208013EF000F1010318F10A72
:10028C00831203172908F400F50172200630F200DE
:10029C007008F4007108F500720803195A29F50C5E
:1002AC00F40CF513FF3E53290430F1007408F000F0
:1002BC00710803196529F00D7010FF3E5F2930306D
:1002CC007005F3007408F0007508F100F10CF00CE7
:1002DC00F113F10CF00CF113700895000F30970529
:0602EC00730897040800EE
:1002F20083160313061306110610861006118611C3
:1003020083120613861286110611861006101E200D
:100312001E201E208614061406171B2006131E20FC
:1003220006171B2006131E2006171B2006131E206D
:10033200061006171B2006131E2006171B20061385
:100342008610861506171B2006131E20861106141A
:1003520006171B200613061006171B2006131E2065
:1003620006171B200613061406171B2006131E2051
:10037200061006171B20061386150615861406148A
:0E03820006171B2006131E2003172014080068
:0E039000831603130715F0308312970508003B
:10039E008630831603138100643083128100A030EF
:0403AE008B000800B8
:0C03B20083120313950117129712080024
:1003BE00803083120313F0007008083E8400FF3073
:0403CE0080000800A3
:1003D200FB29803083120317A9000E2AC030A9001E
:1003E2000E2A9430A9000E2AD430A9000E2A803099
:1003F200A9000E2A831203172908013A0319EA29D0
:100402002908023A0319EF292908033A0319F229A4
:100412002908043A0319F529F8292A03F0002908C2
:10042200F0077008A9007008B200322003172010EC
:10043200AC012C082B07840000080319282A2C0879
:100442002B0784000008AD00A420AC0A1A2A20144D
:020452000800A0
:10045400D825831603138514051185118601870198
:1004640001308800831287017921DF21121492144C
:100474007C3083169200D9210730FB001730FC0032
:100484006A30FD00FD0B442AFC0B442AFB0B442A72
:1004940000000C300317B200322001300317B20001
:1004A400322001300317A9000630AA005D30AB00EA
:1004B400E9210230A9000330AA004F30AB00E92142
:1004C4001530FB004B30FC00BE30FD00FD0B682AEC
:1004D400FC0B682AFB0B682A0000ED200714783017
:1004E4000317A9003E210630FB001330FC00AD3099
:1004F400FD00FD0B7B2AFC0B7B2AFB0B7B2A0000F7
:100504000000C821071001300317B2003220023066
:100514000317A9000630AA002E30AB00E92103130B
:10052400051507170B30FB002630FC005D30FD007D
:10053400FD0B9A2AFC0B9A2AFB0B9A2A0000000056
:100544000511071301300317B200322001300317DD
:10055400A9000230AA002030AB00E9211530FB00CD
:100564004B30FC00BE30FD00FD0BB62AFC0BB62A56
:10057400FB0BB62A00000130B200322003179901A8
:100584009A010F30831603139F0083128518ED2AF6
:100594000830FB001B30FC002730FD00FD0BD02A87
:1005A400FC0BD02AFB0BD02A02300317A90005301C
:1005B400AA003530AB00E9211130FB003C30FC00CF
:1005C400CB30FD00FD0BE42AFC0BE42AFB0BE42AF0
:1005D4000130B2003220851CF02AF22A851CED2A53
:1005E40001300317B200322001300317A900013093
:1005F400AA003E30AB00E9210230A9000730AA006E
:100604003D30AB00E92103179B019C01CF21031767
:1006140099019A01031705301C02031D132BDC30CA
:100624001B02031C1E2B031385181D2B01300317FB
:10063400B2003220C32A052B0313EF0101217008F5
:100644000313EF00700803190C2B942B333003179A
:10065400A6001908233E840033308000C52B0317FD
:100664003230A6001908233E840032308000C52BA6
:1006740003173130A6001908233E8400313080006E
:10068400C52B03173630A6001908233E84003630E4
:100694008000C52B03173430A6001908233E8400BC
:1006A40034308000C52B03173530A6001908233ECB
:1006B400840035308000C52B03173930A600190893
:1006C400233E840039308000C52B03173830A60040
:1006D4001908233E840038308000C52B03173730B7
:1006E400A6001908233E840037308000C52B031769
:1006F4002330A6001908233E840023308000C52B34
:1007040003173030A6001908233E840030308000DF
:10071400C52B03172A30A6001908233E84002A306B
:100724008000C52B03136F08013A0319282B6F08A7
:10073400023A0319312B6F08033A03193A2B6F0855
:10074400053A0319432B6F08073A03194C2B6F081A
:10075400063A0319552B6F08093A03195E2B6F08E3
:100764000A3A0319672B6F080B3A0319702B6F08A9
:100774000D3A0319792B6F080E3A0319822B6F086F
:100784000F3A03198B2B03172608AD00A420990AEE
:1007940003199A0A80301A06F00080307002031D93
:1007A400D52B04301902031CA02C0630FB00133097
:1007B400FC00AD30FD00FD0BDD2BFC0BDD2BFB0B3A
:1007C400DD2B00000000D630A9002330AA0004303D
:1007D400AB000030AC0010217008A1007108A20029
:1007E40000307106031DF82B00307006031D372CF2
:1007F4000630FB001330FC00AD30FD00FD0B002C77
:10080400FC0B002CFB0B002C000000000130B2009C
:1008140032200C300317B200322001300317A90034
:100824000630AA00E930AB00E9210130A900033009
:10083400AA001030AB00E92103138515ED208714BD
:10084400C8300317A9003E210430FB000C30FC0023
:100854003330FD00FD0B2C2CFC0B2C2CFB0B2C2C17
:1008640000000000C8218710A12C0230FB000430D6
:10087400FC00BA30FD000313FD0B3D2CFC0B3D2C9A
:10088400FB0B3D2C000005150230FB008630FC00FC
:100894009930FD00FD0B4C2CFC0B4C2CFB0B4C2C11
:1008A40005110230FB003830FC00AD30FD00FD0BBB
:1008B400592CFC0B592CFB0B592C05150230FB0051
:1008C4008630FC009930FD00FD0B662CFC0B662C79
:1008D400FB0B662C05110230FB003830FC00AD30F8
:1008E400FD00FD0B732CFC0B732CFB0B732C0515FB
:1008F40001300317B200322001300317A90003307E
:10090400AA00DB30AB00E9210230A9000330AA00C1
:100914006330AB00E9210B30FB002630FC005D3076
:10092400FD00FD0B932CFC0B932CFB0B932C000074
:1009340000000130B20032200511C32A0C2B1F30F5
:10094400FB007130FC001E30FD00FD0BA72CFC0BDE
:10095400A72CFB0BA72C000003179F0103170130E2
:10096400B200322001300317A9000130AA00A030E0
:10097400AB00E9210230A9000130AA00B130AB007C
:10098400E921012170089F0070080319C32C1F0876
:100994000D3A031D282D0530FB000F30FC00F1300B
:1009A400FD00FD0BD32CFC0BD32CFB0BD32C013003
:1009B400B200322001300317A9000330AA00CA3064
:1009C400AB00E921031385110530FB000F30FC0057
:1009D400F130FD00FD0BEC2CFC0BEC2CFB0BEC2C98
:1009E400ED200714C8300317A9003E210430FB0092
:1009F4000C30FC003330FD00FD0BFE2CFC0BFE2CF8
:100A0400FB0BFE2C000000000710C82107170C3058
:100A1400850002300317A9000130AA00BA30AB00E8
:100A2400E9210E30FB003130FC009430FD00FD0B59
:100A3400192DFC0B192DFB0B192D00000313850137
:100A4400071301300317B2003220C32AB02C292D1A
:100BB00020308400433083120313F0002F300317DA
:100BC0009D0005309E00F520A03084001130831276
:100BD000F000AA3003179D0005309E00F520633019
:100BE00084000C308312F000BB3003179D000530E9
:100BF0009E00F520B130840038308312F00072304E
:100C000003179D0005309E00F520103083178400E7
:100C100009308312F000C73003179D0005309E0095
:100C2000F5208313E930840007308312F000D030C0
:0C0C300003179D0005309E00F520080011
:100A5E00533445344E3453344F34523420344134AD
:0C0A6E00433454344934563445340034C9
:0E0A7A004C344F3443344B3445344434003450
:100A88004C344334443420344F34463446340034F0
:020A9800003428
:100A9A0050346C34653461347334653420344934E9
:100AAA006E3470347534743420346B34653479346C
:020ABA00003406
:100ABC004F34623473346534723476346534203494
:0C0ACC006D346F3474346F3472340034B5
:0C0AD8005334543441345234543400344C
:100AE400503472346534733473343A3420342334D8
:020AF4000034CC
:100AF60053344534433455345234493454345934D8
:100B06002034413443345434493456344534003463
:100B160044344F344F34523420344C344F344334FD
:080B26004B3445344434003423
:0A0B2E0031343234333434340034EF
:100B38004134633463346534733473342034643437
:0C0B480065346E34693465346434003464
:100B540044346F346F34723420346F3470346534F9
:100B64006E342E3420344C346F3463346B343F345D
:020B740000344B
:100B760054347234793420346134673461346934DE
:080B86006E342E342E340034CD
:100B8E0020342034203420342034203420342034B7
:020B9E00003421
:0E0BA00055344E344C344F3443344B3400340F
:02400E007A3BFB
:00000001FF
